:020000040800F2
:1000000000000220D5060008D1060008D9340008F7
:10001000D1060008D1060008D10600080000000043
:10002000000000000000000000000000D1060008F1
:10003000D106000800000000D10600085D34000869
:10004000D1060008D1060008D1060008D106000834
:10005000D1060008D1060008D1060008D106000824
:10006000D1060008D1060008D10600086930000852
:1000700075300008D1060008813000088D30000876
:10008000BDC9000849250008D1060008D1060008AE
:10009000D1060008D1060008D1060008D1060008E4
:1000A000D1060008D1060008D1060008D1060008D4
:1000B000EDBD0008F9BD000805BE0008792500085F
:1000C000D106000885250008D1060008A1B6000861
:1000D000ADB60008CDC70008FDC7000835C8000848
:1000E000D1060008D106000800000000D106000873
:1000F000D1060008D1060008D1060008D106000884
:10010000D1060008D106000811BE0008B9B60008E3
:100110006DC80008A5C80008D1060008D10600086F
:10012000D1060008D1060008DDB6000811B70008A6
:10013000F1C90008D1060008D1060008D106000860
:1001400000000000000000000000000000000000AF
:10015000D1060008D1060008D1060008DDC8000855
:1001600091250008D10600086D340008913400087C
:10017000D1060008B5340008D1060008D1060008F1
:10018000D1060008D106000815C900084DC90008AD
:10019000C5B60008D1B60008D1060008D10600088F
:1001A000D1060008D1060008D1060008D1060008D3
:1001B000E92C0008D1060008D1060008D106000885
:1001C000D1060008D1060008D1060008D1060008B3
:1001D000D1060008D1060008D1060008D1060008A3
:1001E000D1060008D1060008D1060008D106000893
:1001F000D1060008D1060008D1060008D106000883
:10020000D1060008D1060008D1060008D106000872
:10021000D1060008D1060008D1060008D106000862
:10022000D1060008D1060008D10600080000000031
:10023000D1060008D106000800000000D106000821
:10024000D1060008D1060008D1060008D106000832
:10025000D1060008D1060008D1060008D106000822
:10026000D1060008D1060008D1060008D106000812
:10027000D1060008D106000885C90008000000006A
:10028000D1060008D1060008D106000800000000D1
:0802900000000000D106000887
:1002980081F0004102E000BF83F0004330B54FEA2F
:1002A80041044FEA430594EA050F08BF90EA020F9C
:1002B8001FBF54EA000C55EA020C7FEA645C7FEA2F
:1002C800655C00F0E2804FEA5454D4EB5555B8BF52
:1002D8006D420CDD2C4480EA020281EA030382EAC3
:1002E800000083EA010180EA020281EA0303362D55
:1002F80088BF30BD11F0004F4FEA01314FF4801C28
:100308004CEA113102D0404261EB410113F0004F39
:100318004FEA03334CEA133302D0524263EB4303F0
:1003280094EA050F00F0A780A4F10104D5F1200E8E
:100338000DDB02FA0EFC22FA05F2801841F10001E9
:1003480003FA0EF2801843FA05F359410EE0A5F1BD
:1003580020050EF1200E012A03FA0EFC28BF4CF0EE
:10036800020C43FA05F3C01851EBE37101F00045A4
:1003780007D54FF0000EDCF1000C7EEB00006EEBB1
:100388000101B1F5801F1BD3B1F5001F0CD349083B
:100398005FEA30004FEA3C0C04F101044FEA445292
:1003A80012F5800F80F09A80BCF1004F08BF5FEA19
:1003B800500C50F1000041EB045141EA050130BDF9
:1003C8005FEA4C0C404141EB0101013C28BFB1F50B
:1003D800801FE9D291F0000F04BF01460020B1FA56
:1003E80081F308BF2033A3F10B03B3F120020CDA29
:1003F8000C3208DD02F1140CC2F10C0201FA0CF007
:1004080021FA02F10CE002F11402D8BFC2F1200C6B
:1004180001FA02F120FA0CFCDCBF41EA0C01904021
:10042800E41AA2BF01EB0451294330BD6FEA04046A
:100438001F3C1CDA0C340EDC04F11404C4F1200255
:1004480020FA04F001FA02F340EA030021FA04F367
:1004580045EA030130BDC4F10C04C4F1200220FABE
:1004680002F001FA04F340EA0300294630BD21FAFC
:1004780004F0294630BD94F0000F83F4801306BFC2
:1004880081F480110134013D4EE77FEA645C18BFB6
:100498007FEA655C29D094EA050F08BF90EA020F4D
:1004A80005D054EA000C04BF1946104630BD91EA45
:1004B800030F1EBF0021002030BD5FEA545C05D148
:1004C8004000494128BF41F0004130BD14F5800487
:1004D8003CBF01F5801130BD01F0004545F0FE41FB
:1004E80041F470014FF0000030BD7FEA645C1ABF30
:1004F800194610467FEA655C1CBF0B46024650EA67
:10050800013406BF52EA033591EA030F41F4002192
:1005180030BD00BF90F0000F04BF0021704730B518
:100528004FF4806404F132044FF000054FF00001ED
:1005380050E700BF90F0000F04BF0021704730B5AE
:100548004FF4806404F1320410F0004548BF404283
:100558004FF000013EE700BF42004FEAE2014FEAD8
:1005680031014FEA02701FBF12F07F4393F07F4FB3
:1005780081F06051704732F07F4208BF704793F0B6
:100588007F4F04BF41F40021704730B54FF46074C9
:1005980001F0004521F000411CE700BF50EA0102CC
:1005A80008BF704730B54FF000050AE050EA010275
:1005B80008BF704730B511F0004502D5404261EBE5
:1005C80041014FF4806404F132045FEA915C3FF426
:1005D800D8AE4FF003025FEADC0C18BF03325FEAC3
:1005E800DC0C18BF033202EBDC02C2F1200300FA74
:1005F80003FC20FA02F001FA03FE40EA0E0021FA99
:1006080002F11444BDE600BF53B94AB9002908BF36
:1006180000281CBF4FF0FF314FF0FF3000F00CB83E
:10062800ADF1080C6DE904CE0EF080FDDDF804E0B4
:10063800DDE9022304B07047704700BF0348044B4C
:10064800834202D0034B03B118477047CC03002400
:10065800CC030024000000000548064B1B1AD90FE4
:1006680001EBA301491002D0034B03B118477047AF
:10067800CC030024CC0300240000000010B5064C75
:10068800237843B9FFF7DAFF044B13B10448AFF3FB
:1006980000800123237010BDD00300240000000057
:1006A80030F7000808B5054B1BB105490548AFF3FD
:1006B8000080BDE80840FFF7CFBF00BF0000000082
:1006C800D403002430F70008FEE700BF0C4A0D4BA6
:1006D800934204D0D21A0C4918460EF019FD0B4A61
:1006E8000B4B934204D0D21A002118460EF0D0FCCE
:1006F80003F046F90EF0DAFC00F07AF8FEE700BFE6
:10070800CC0300240000002460F7000848380024C7
:10071800D0030024704700BF9AB30368194810B586
:1007280084464FEA820E184C03EB8202F3EC017AFE
:10073800B4EC017A934267EE877AECEC017AF5D152
:1007480000EB0E020F4BDFED117AB3EC017A934206
:1007580077EE877AF9D10B4BD3ED006A86EEA77A4C
:10076800A3EC017A9342F7D1D1E9003103EB0E04EF
:1007780050F8042B43F8042BA34241F8042BF7D17B
:1007880010BD7047EC030024EC07002400000000B3
:1007980070B50E1E2DED028B1FDD731E054600245D
:1007A80007EE903AB8EEE78B07EE904A01349FEDDA
:1007B8000C6BB8EEE77B27EE067B87EE080BB7EEEF
:1007C800C00B0EF06DFB9FED087ADFED087AA642AC
:1007D800E0EE477AE5EC017AE6D1BDEC028B70BD1C
:1007E800182D4454FB2119401F85EB3E713D0A3FEB
:1007F80008B500210A4800F023F94FF48071084831
:1008080000F048F80321064800F028F84FF48071FA
:100818000448FFF7BDFF0449014800F01BF8FEE754
:10082800EC0B0024EC0700242107000810B4002377
:100838000548064A06495DF8044B036043610362B4
:10084800C3630EF027BB00BFEC0B0024000000249C
:100858001D070008143001F0EFBA00BF38B500F1E9
:10086800140504462DED028B284601F0A3FA28460C
:1008780001F09CFA2846B0EE408A01F085FAD0EDE6
:10088800007AF8EE677A88EE277ABDEC028B84ED61
:100898000E7A38BD38B500F1140504462DED028BEB
:1008A800284601F075FA284601F080FA2846B0EE8D
:1008B800408A01F069FAD0ED007AF8EE677A88EE9E
:1008C800277ABDEC028B84ED0E7A38BD10B540F264
:1008D80003318EB000244FF60B7340F20342ADF89B
:1008E8000810029909A8ADF81030ADF8243001239A
:1008F800ADF80C202246009407940C94CDE90544E9
:10090800CDE90A4401F0CAFA04A801232246039952
:10091800009401F0C3FA09A801F0CEFB10B9012038
:100928000EB010BD04A801F0C7FB80F00100C0B2F2
:1009380040000EB010BD00BF2DE9F04103239AB06E
:1009480001270024149306463A4B1094119340F261
:1009580004531597ADF84830CDE91647FFF7B6FFB1
:10096800B842054643D0022832D1334B40F6013213
:100978000DF12C080094CDF84A304FF60B73ADF802
:100988001820404606993A46ADF82C3023460E9476
:10099800CDE91847CDE90C4401F080FA21464046DC
:1009A80001F096FB10A906F13C0002F0E5FB3020AF
:1009B80003224FF07E5341460D930E93CDE90B026F
:1009C800F26B06F1140001F0A7F91AB0BDE8F08146
:1009D80040F60132184B0DF12C08ADF82C200B987D
:1009E800CDF84A30CDE9184700F0A4F8DAE710232B
:1009F800114A06A906908DF828300DF12C080F4BE6
:100A0800CDF84A2009940294CDE90730CDE91804BD
:100A180002A801F0BFFD0823029A03A94046ADF8D9
:100A28000C508DF80E40049505930B9400F0C0F817
:100A3800B8E700BF04020404040604030704010B1A
:100A48002DE9F041394B0446394D40F20112012697
:100A580004F104082DED028B82B04560A36003F514
:100A68008133ADF8042040F2027203F58073002050
:100A7800A4F82520E36040F606632682A4F829300E
:100A880084F8276084F82B6000918DF8060002F046
:100A98002BFF054602F08EFD6946074610BB0DB3D5
:100AA80004F130008DF8066002F0A6FE072D34D15F
:100AB80004F114052046FFF73FFF284601F076F9B8
:100AC8002846B0EE408A01F05FF9D0ED007AF8EEE2
:100AD800677A88EE277A84ED0E7A02B0BDEC028B35
:100AE800BDE8F08104F1300002F086FE072D02D146
:100AF800002FDDD004E04146204601F079FF8FB198
:100B080004F1250001F0EEFA04F1290001F0EAFAF7
:100B180004F1120000F068F9CAE74146204601F0E6
:100B280067FFC5E7002DEBD0C2E700BF0507050644
:100B38000508050910B584B00346012403A8ADF8DB
:100B48000C30ADF80E4001F0CDFA214603A801F0B3
:100B5800A7FB204602F02CFD002103A801F0A0FB12
:100B6800204602F025FD214603A801F099FB04B0B8
:100B780010BD00BF10B5C2F3002384B00C46017C41
:100B88008DF80D2043EA4402FA2402238DF80C2044
:100B980003AA009401F08EFD18B10124204604B088
:100BA80010BD04460A2002F003FD204604B010BD23
:100BB800034670B5044684B043F8042BFA2507C9E8
:100BC80083E80700A1791E23009503AA1A31ADF81E
:100BD8000C3020460223C9B2217401F06BFD10B11C
:100BE800012004B070BD0A2002F0E2FC4FF4B852B4
:100BF80000950223ADF80C20204603AA217C01F0C1
:100C080059FD0028ECD10A2002F0D2FC41F2027210
:100C180000950223ADF80C20204603AA217C01F0A0
:100C280049FD0028DCD10A2002F0C2FC042200950C
:100C38000223ADF80C20204603AA217C01F03AFDDE
:100C48000028CDD10A2002F0B3FC06220095022329
:100C5800ADF80C20204603AA217C01F02BFD0028CA
:100C6800BED10A2002F0A4FC41F20822009502231A
:100C7800ADF80C20204603AA217C01F01BFD0028BA
:100C8800AED10A200A2602F093FC0095022303AA9B
:100C9800217C2046ADF80C6001F00CFD00289FD1A6
:100CA800304602F085FC23790C220095002B217C2C
:100CB8008DF80C20204614BF622342236A448DF825
:100CC8000D30022301F0F6FC002889D1304602F0ED
:100CD8006FFCA36800952046E268217C1343627983
:100CE80043EA4213227982F0010243EA82130E2278
:100CF8008DF80D3002238DF80C2003AA01F0DAFCE0
:100D080000287FF46DAF304602F052FC10220095A7
:100D18000223ADF80C20204603AA217C01F0CAFC6E
:100D280000287FF45DAF304602F042FC12210095A6
:100D38000223ADF80C1003AA217C204601F0BAFC6E
:100D480000287FF44DAF304602F032FC0122092121
:100D5800204604B0BDE87040FFF70CBF70B586B000
:100D680000240125102602A94FF480521C48019442
:100D7800CDE90256CDE9045408F080FE642003F062
:100D880049F8022302A94FF48052154802930594AA
:100D9800CDE9036508F072FE042302A94FF48052DE
:100DA8000F480396CDE904340323029308F066FE46
:100DB80040F23223042202A9094801931023049522
:100DC800CDE90223019B4FF48052059308F056FEAB
:100DD80040F60601024808F071FE204606B070BDD4
:100DE800340C00240000000070B51D4B88B00822A8
:100DF8004FF4006400211B4E1A614FF0020C03925D
:100E08000A225C622024069240220546996003204B
:100E1800196210215E600126C3E905424FF4C072D1
:100E2800DE60DA6107229FED0C7BCDE900C2042267
:100E3800CDE904016946181D029283ED0A7B08F08A
:100E4800F3FD30B904462846FFF788FF204608B06E
:100E580070BD304608B070BD0010000000000000F2
:100E6800300C0024404100525E4A0023F0B514685B
:100E78008FB00A93002C40F0B2805B4B012103260F
:100E88000C2511600227D3F8D420584842F4805228
:100E9800C3F8D420D3F8D42002F480520092009AE8
:100EA800D3F8E02042F01002C3F8E020D3F8E020A5
:100EB80002F010020192019AD3F8E02042F04002B9
:100EC800C3F8E020D3F8E02002F040020292029A30
:100ED800D3F8E02042F00802C3F8E020D3F8E0207D
:100EE80002F008020392039AD3F8E02042F48072D9
:100EF800C3F8E020D3F8E02002F480720492049A48
:100F0800D3F8E02042F08002C3F8E020D3F8E020D4
:100F180002F080020592059AD3F8E02042F0200200
:100F2800C3F8E020D3F8E02002F020020692069AE7
:100F3800D3F8E02042F00402C3F8E0204FF68372B1
:100F4800D3F8E0300B9603F004030C9507930223C3
:100F5800079908A9CDE9082303F0CCFE48F2371316
:100F680008A9234808930C950997CDE90A4603F088
:100F7800C1FE4CF2037308A91E480893CDE9097411
:100F8800CDE90B6503F0B6FE40F2FF6308A91A48E5
:100F98000893CDE90974CDE90B6503F0ABFE4FF674
:100FA8000C7308A915480893CDE90974CDE90B65B8
:100FB80003F0A0FE4FF63F0308A911480893CDE9B6
:100FC8000974CDE90B6503F095FE202308A90B48A9
:100FD80009970C950893CDE90A4603F08BFE0FB0EC
:100FE800F0BD00BF2C0C0024004402580010025829
:100FF80000180258000C025800200258001C025821
:10100800001402582DE9F04F8BB0DFF858810646DE
:101018004E4800AF0D46144602F0ACF94369D8E9D2
:101028000621002A00F0E081002940F09D8002227C
:10103800D8F804A04FF008097A62BAF1000F00F05E
:101048009D80A200E946012B02F1070222F0070267
:10105800ADEB020D6846ADEB020DEB4600F0CB811F
:10106800022B00F05982002B40F0BA81002C00F0CE
:10107800B7811A46D8ED0C6A9FED357A0146331DC3
:1010880036F922C0083107EE90CA33F922C002327D
:10109800F8EEE77A944267EE877A67EEA67A41ED32
:1010A800027A07EE90CAF8EEE77A67EE877A67EE7B
:1010B800A67A41ED017AE3D859462246D047002165
:1010C80098ED0D6A2B1DDFED236A23489FED237AE7
:1010D800DFED235ADBED007A024666EE277AF4EE5E
:1010E800E67AF1EE10FA0CD9F4EEC77AF1EE10FABE
:1010F80067FE277A67EEA57AFDEEE77A17EE902A63
:1011080012B2DBED017A45F8212066EE277AF4EE7B
:10111800E67AF1EE10FA40F2DB81F4EEC77A0BF1D1
:10112800080BF1EE10FA67FE277A67EEA57AFDEE56
:10113800E77A17EE902A12B243F821200231A14231
:10114800C8D3CD462C37BD46BDE8F08F800C0024AF
:101158000000003804FF7FBF0280FFFF04FF7F3FCD
:1011680000FEFF46680C00240422D8F804A04FF0C3
:1011780010097A62BAF1000F7FF463AF3B62D8F8C6
:101188000030BB61002BDDD0DA48C7F810D002F080
:101198005BF97B6AF860022B3B6A00F044826A467E
:1011A80060084946012BA2EBC4029546B860C4F317
:1011B8005D02EB46ABEBC4008546EE46ADEB090D90
:1011C8000BEB820968460EEB820CADEB010D014674
:1011D800C7F820D0F961C0E900B909EB820088603E
:1011E8000CEB820178617869029101EB820100EBD6
:1011F80082000391F969CDE900ECC86000F0EE8344
:10120800022B00F00183002B40F0F581002C00F048
:101218004B847A6A022A00F04D841946D8F82420B3
:10122800FB68DFEDB55A02EB8302FB697D6102F1D1
:10123800040ED3E902A0331D844636F92100D8ED07
:101248000C7A06EE100A33F9210006EE900A32F9FC
:101258002100B8EEC66A07EE100AF8EEE66A3EF913
:101268002100B8EEC77A26EE256A66EEA56A27EE53
:10127800257A26EE276A66EEA76A27EE277A07EE12
:10128800900A48080231F8EEE77A0BEB80058C42A9
:1012980085ED006A09EB800567EEA57AC5ED006A61
:1012A8000AEB80050CEB800085ED007A98ED0C7A4E
:1012B80067EE877AC0ED007ABFD87D69BB69BA68E6
:1012C800D7E9070198473B6A98ED0D7AD3E900CE34
:1012D8007B6A022B00F03D84D8F82C300020FA6895
:1012E800DFED8C6A03EB820A3B6A9FED846ADFEDCF
:1012F800845A0AF10408834ED3E9029B2B1D420845
:101308000CEB82019200D1ED007A67EE277AF4EEB9
:10131800E67AF1EE10FA40F28481F4EEC67AF1EE44
:1013280010FA66FE277A67EEA57AFDEEE77A17EEE1
:10133800901A09B245F820100EEB0201D1ED007A9F
:1013480067EE277AF4EEE67AF1EE10FA40F267815A
:10135800F4EEC67AF1EE10FA66FE277A67EEA57A01
:10136800FDEEE77A17EE901A09B243F8201009EB60
:101378000201D1ED007A67EE277AF4EEE67AF1EE13
:1013880010FA40F24A81F4EEC67AF1EE10FA66FEDF
:10139800277A67EEA57AFDEEE77A17EE901A09B27A
:1013A8005A444AF82010D2ED007A67EE277AF4EE14
:1013B800E67AF1EE10FA40F22981F4EEC67AF1EEFF
:1013C80010FA66FE277A67EEA57AFDEEE77A17EE41
:1013D800902A12B248F82020023084428FD80FE1B8
:1013E80022465946D047ACE600297FF420AE2C3778
:1013F800BD46BDE8F08F002CF2D0D8ED0C6A8446CB
:101408009FED417A0021331D56F821200CF1080C7C
:1014180082F40002A2F5000207EE902A53F8212078
:101428000231F8EEE77A82F400028C42A2F500025B
:1014380067EE877A67EEA67A4CED027A07EE902A75
:10144800F8EEE77A67EE877A67EEA67A4CED017ACE
:10145800DAD822465946D047002298ED0D6A2B1D4E
:10146800DFED2C6A29489FED257ADBED007A0146ED
:1014780066EE277AF4EEE67AF1EE10FA0BD9F4EE7E
:10148800C77AF1EE10FA67FE277AF0EE675AFEEE99
:10149800E45A15EE901ADBED017A45F8221066EE53
:1014A800277AF4EEE67AF1EE10FA1AD9F4EEC77A52
:1014B8000BF1080BF1EE10FA67FE277AFEEEE47ADC
:1014C80017EE901A43F8221002329442CDD838E62B
:1014D80043F8210002310BF1080B8C423FF6FAADBC
:1014E8002FE643F8220002320BF1080B9442BCD8D5
:1014F80027E600BF840C00240000003804FF7F3F6B
:1015080000FEFF460280FFFF000000347E0080FFDF
:101518000000003004FF7FBF002C3FF461AFD8ED1E
:101528000C6A01461FED067A0022331D844656F8E0
:101538002200083107EE900A53F822000232F8EE32
:10154800E77A944267EE877A67EEA67A41ED027AE7
:1015580007EE900AF8EEE77A67EE877A67EEA67AE2
:1015680041ED017AE3D8604622465946D047002229
:1015780098ED0D6A2B1D5FED196A9D489FEDA17AC4
:10158800DBED007A014666EE277AF4EEE67AF1EEB4
:1015980010FA0BD9F4EEC77AF1EE10FA67FE277A43
:1015A800F0EE675AFEEEE05A15EE901ADBED017A7E
:1015B80045F8221066EE277AF4EEE67AF1EE10FA94
:1015C80011D9F4EEC77A0BF1080BF1EE10FA67FEA9
:1015D800277AFEEEE07A17EE901A43F822100232CC
:1015E8009442CDD8ADE543F8220002320BF1080B46
:1015F8009442C5D8A5E5BA68BB69D7E907019847F9
:10160800D7F810D02C37BD46BDE8F08F48F82060D9
:10161800023084423FF673AEF2E73146C0E6314607
:10162800A3E6314686E6A00049466208012B00F190
:10163800070020F00700ADEB000DEB46ADEB000D09
:10164800BA606846ADEB090D0BEB8209EC46C7F8AA
:101658001CD0ADEB010D00EB8201CCE900B9C7F855
:1016680020D0009001917FF4CBAD002C00F01C82BB
:1016780098ED0C6A331DDFED5F6A56F82A1081F485
:101688000001A1F5000107EE901A53F82A1081F421
:101698000001B8EEE77AA1F5000127EE267A07EEF9
:1016A800901A4FEA5A010AF1020AF8EEE77A0BEBB0
:1016B800810027EE067A09EB8101544567EEA67A88
:1016C80080ED007A67EE867AC1ED007AD5D8BB69DD
:1016D800D7E9070198473B6A98ED0D7AD3E900CE20
:1016E8007B6A022B00F0D282D8F82C300020FA68EE
:1016F800DFED436A03EB820A3B6A9FED426A0AF117
:1017080004083D4ED3E9029B2B1D42080CEB8201D5
:101718009200D1ED007A67EE277AF4EEE67AF1EEE0
:1017280010FA63D9F4EEC67AF1EE10FA66FE277A5B
:10173800F0EE675AFEEEE45A15EE901A45F82010BE
:101748000EEB0201D1ED007A67EE277AF4EEE67A25
:10175800F1EE10FA48D9F4EEC67AF1EE10FA66FE08
:10176800277AF0EE675AFEEEE45A15EE901A43F81F
:10177800201009EB0201D1ED007A67EE277AF4EE2A
:10178800E67AF1EE10FA2DD9F4EEC67AF1EE10FAF7
:1017980066FE277AF0EE675AFEEEE45A15EE901AC6
:1017A8005A444AF82010D2ED007A67EE277AF4EE10
:1017B800E67AF1EE10FA0FD9F4EEC67AF1EE10FAE5
:1017C80066FE277AFEEEE47A17EE902A48F8202083
:1017D8000230844299D813E748F8206002308442E6
:1017E80093D80DE73146DBE73146C0E73146A5E738
:1017F800007E0080000000347E0080FF0000003082
:1018080004FF7FBF04FF7F3F002C00F04D817B6AFF
:10181800022B00F07781D8F82430FA687D6103EB59
:10182800820CFB695FED0B5A00220CF1040ED3E920
:1018380002A1331D0D4656F82210D8ED0C7A07EE9A
:10184800101A53F82210B8EEC76A07EE101A5CF89F
:101858002210F8EEC76A07EE101A26EE256A5EF81F
:101868002210B8EEC77A66EEA56A26EE276A27EE3A
:10187800257A66EEA76A27EE277A07EE901A5108AE
:101888000232F8EEE77A0BEB8100944280ED006AB1
:1018980009EB810067EEA57AC0ED006A0AEB8100CA
:1018A80005EB810180ED007A98ED0C7A67EE877A76
:1018B800C1ED007ABFD87D69BB69BA68D7E907016D
:1018C80098473B6A98ED0D7AD3E900CE7B6A022BE4
:1018D80000F08881D8F82C300020FA685FED386A6B
:1018E80003EB820A3B6A1FED396A0AF10408DF4EEE
:1018F800D3E9029B2B1D42080CEB82019200D1ED2B
:10190800007A67EE277AF4EEE67AF1EE10FA63D9F8
:10191800F4EEC67AF1EE10FA66FE277AF0EE675A10
:10192800FEEEE05A15EE901A45F820100EEB020173
:10193800D1ED007A67EE277AF4EEE67AF1EE10FA46
:1019480048D9F4EEC67AF1EE10FA66FE277AF0EE80
:10195800675AFEEEE05A15EE901A43F8201009EB8C
:101968000201D1ED007A67EE277AF4EEE67AF1EE1D
:1019780010FA2DD9F4EEC67AF1EE10FA66FE277A3F
:10198800F0EE675AFEEEE05A15EE901A5A444AF8FD
:101998002010D2ED007A67EE277AF4EEE67AF1EEBF
:1019A80010FA0FD9F4EEC67AF1EE10FA66FE277A2D
:1019B800FEEEE07A17EE902A48F8202002308442A2
:1019C80099D81DE648F820600230844293D817E67B
:1019D8003146DBE73146C0E73146A5E7002C63D046
:1019E800D8F824305246F9687D6003EB810CDFEDAE
:1019F800A05A331D7D690CF1040E56F82210D8ED5B
:101A08000C7A81F40001A1F5000107EE101A53F8D1
:101A1800221081F40001B8EEC76AA1F5000126EE94
:101A2800256A07EE101A5CF8221081F40001F8EE1E
:101A3800C76A26EE276AA1F5000166EEA56A07EED9
:101A4800101A5EF82210B8EEC77A81F4000166EE2B
:101A5800A76AA1F5000127EE257A27EE277A07EE77
:101A6800901A51080232F8EEE77A0BEB810A944299
:101A78008AED006A09EB810A67EEA57ACAED006A69
:101A880005EB810A00EB81018AED007A98ED0C7A6A
:101A980067EE877AC1ED007AAFD8BB69D7E9015202
:101AA800D7E90701984716E60022BB69D7E907017D
:101AB8009847A5E51A4698ED0C6ADFED6E6A331D66
:101AC80036F9221007EE101A33F9221007EE901A91
:101AD800B8EEC77A51080232F8EEE77A27EE267A8E
:101AE8000BEB8100944209EB810167EEA67A27EEA1
:101AF800067A67EE867A80ED007AC1ED007ADFD843
:101B0800FFF7DCBB98ED0C6A0022DFED5B6A331D42
:101B180056F8221007EE901A53F82210B8EEE77A1A
:101B280007EE901A51080232F8EEE77A27EE267A85
:101B38000BEB8100944209EB810167EEA67A27EE50
:101B4800067A67EE867A80ED007AC1ED007ADFD8F2
:101B5800B2E60021DFED4B6A9FED4B6A2B1DDFEDEE
:101B6800475A47484A0806460CEB82089200D8EDC7
:101B7800007A67EE277AF4EEE67AF1EE10FA0CD9DD
:101B8800F4EEC67AF1EE10FA66FE277A67EEA57AC9
:101B9800FDEEE77A17EE906A36B2724445F8216096
:101BA800D2ED007A67EE277AF4EEE67AF1EE10FAD3
:101BB80012D9F4EEC67AF1EE10FA66FE277A67EECD
:101BC800A57AFDEEE77A17EE902A12B243F82120A3
:101BD80002318C42C6D813E543F8210002318C4209
:101BE800C0D80DE50021DFED276A9FED276A2B1D80
:101BF8001E484A0806460CEB82089200D8ED007A87
:101C080067EE277AF4EEE67AF1EE10FA0BD9F4EEE5
:101C1800C67AF1EE10FA66FE277AF0EE675AFEEE03
:101C2800E05A15EE906A724445F82160D2ED007AC8
:101C380067EE277AF4EEE67AF1EE10FA0FD9F4EEB1
:101C4800C67AF1EE10FA66FE277AFEEEE07A17EE13
:101C5800902A43F8212002318C42CAD8D0E443F8B4
:101C6800210002318C42C4D8CAE400BF007E008043
:101C780000000034000000380000003000FEFF467D
:101C88000280FFFF04FF7FBF04FF7F3F00215FED5D
:101C9800036A1FED036A2B1D1E484A0806460CEB13
:101CA80082089200D8ED007A67EE277AF4EEE67A99
:101CB800F1EE10FA0BD9F4EEC67AF1EE10FA66FEE0
:101CC800277AF0EE675AFEEEE45A15EE906A7244EF
:101CD80045F82160D2ED007A67EE277AF4EEE67ACD
:101CE800F1EE10FA0FD9F4EEC67AF1EE10FA66FEAC
:101CF800277AFEEEE47A17EE902A43F82120023183
:101D08008C42CAD87CE443F8210002318C42C4D802
:101D180076E400BF7E0080FF30B5184C85B01546CC
:101D2800046004F1080E0FC98EE80F00D4ED047AA0
:101D3800F5EEC07A8DE80F00F1EE10FA1ADDB7EE75
:101D4800006A94ED057A27EE277AC6EE276A84EDB5
:101D58000D7AC4ED0C6A6DB1204640F8185F01F0A9
:101D680009FB074903690020064A2162A262E36071
:101D780005B030BD012005B030BD00BF680C00249F
:101D8800002000300000003000680830704700BFB5
:101D9800B1F5807F03680A4628BF4FF48072B1F519
:101DA800807F9A6094BF0020012070470068183037
:101DB80001F038BB70B504688AB0A369E160CBB1A3
:101DC80004F11805284601F0D5FA8446EE46E6687F
:101DD800BCE80F00AEE80F00BCE80F00AEE80F004B
:101DE8009CE803008EE8030069462846049601F043
:101DF800C3F9F0B9E369CBB104F11C05284601F039
:101E0800B9FA8446EE46E468BCE80F00AEE80F0075
:101E1800BCE80F00AEE80F009CE803008EE8030062
:101E280069462846049401F0A7F910B900200AB0C1
:101E380070BD01200AB070BD30B5046883B00D468E
:101E4800E3694BB1A3680020E26A616A9B000090D5
:101E580004F11C0001F090FAA3680748A26A9B00ED
:101E6800216A009004F1180001F086FA0020C4E904
:101E7800005003B030BD00BF0D100008064B3020E5
:101E880003214FF07E52C3E90201002000211A61AC
:101E98005A61C3E906017047680C002410B592B076
:101EA8000180ADF80410C9B2149C0B29C460C0E9C4
:101EB80001233FD090F801E08446BEF10F0F39D8D6
:101EC800022A39D0032A04D0A2F10102B2FA82F21E
:101ED8005209012B0E9205D0A3F10203B3FA83F342
:101EE8005B095B00022C0F9306D0032C04D0A4F1ED
:101EF8000104B4FA84F464090A2910940FD8624BD7
:101F08004A1E03EB8123CCF81030092A00F2AC807A
:101F1800DFE802F0233241505F6E7D8C9B14002372
:101F28001846CCF8103001230DA903FA0EF30D93CF
:101F380002F0E0FE12B010BD1122CAE7534B54481C
:101F4800D3F8E02042F48062C3F8E020D3F8E03010
:101F580003F480630C930C9BE5E74C4B4D48D3F896
:101F6800E02042F00202C3F8E020D3F8E03003F0AA
:101F780002030393039BD6E7444B4748D3F8E0207A
:101F880042F00402C3F8E020D3F8E03003F0040381
:101F98000493049BC7E73D4B4048D3F8E02042F048
:101FA8000802C3F8E020D3F8E03003F008030593F3
:101FB800059BB8E7354B3A48D3F8E02042F01002C9
:101FC800C3F8E020D3F8E03003F010030693069B33
:101FD800A9E72E4B3348D3F8E02042F02002C3F89B
:101FE800E020D3F8E03003F020030793079B9AE73B
:101FF800264B2D48D3F8E02042F04002C3F8E020F9
:10200800D3F8E03003F040030893089B8BE71F4B9D
:102018002648D3F8E02042F08002C3F8E020D3F845
:10202800E03003F080030993099B7CE7174B2048B5
:10203800D3F8E02042F48072C3F8E020D3F8E0300F
:1020480003F480730A930A9B6DE7104B1948D3F881
:10205800E02042F40072C3F8E020D3F8E03003F443
:1020680000730B930B9B5EE7084B0748D3F8E020FF
:1020780042F00102C3F8E020D3F8E03003F0010396
:102088000293029B4FE700BF000002580044025829
:10209800002802580004025800080258000C025890
:1020A800001002580014025800180258001C025868
:1020B800002002580024025808B50121437800691D
:1020C800994089B203F050F9003818BF012008BDC3
:1020D80001230A464178006903FA01F189B203F045
:1020E80049B900BF8378022B30B504468FB039D088
:1020F800032B00F0D180A3F10102B2FA82F2520957
:10210800E3780A92012B05D0A3F10203B3FA83F313
:102118005B095B0000222046CDE90B3201F058FD37
:102128000546204601F05CFD23780990082B13D85A
:10213800DFE803F02D405366798C9F051A00574B52
:10214800D3F8E02042F08002C3F8E020D3F8E03072
:1021580003F080030793079B09A9284602F0CAFDEC
:102168000FB030BD1122CBE74C4B09A92846D3F854
:10217800E02042F48072C3F8E020D3F8E03003F4A2
:1021880080730893089B02F0B5FD0FB030BD434B38
:1021980009A92846D3F8E02042F00102C3F8E0205C
:1021A800D3F8E03003F001030093009B02F0A2FD96
:1021B8000FB030BD394B09A92846D3F8E02042F0CA
:1021C8000202C3F8E020D3F8E03003F002030193E1
:1021D800019B02F08FFD0FB030BD304B09A9284696
:1021E800D3F8E02042F00402C3F8E020D3F8E0304E
:1021F80003F004030293029B02F07CFD0FB030BD94
:10220800264B09A92846D3F8E02042F00802C3F873
:10221800E020D3F8E03003F008030393039B02F0B7
:1022280069FD0FB030BD1D4B09A92846D3F8E02041
:1022380042F01002C3F8E020D3F8E03003F01003B6
:102248000493049B02F056FD0FB030BD134B09A94F
:102258002846D3F8E02042F02002C3F8E020D3F863
:10226800E03003F020030593059B02F043FD0FB017
:1022780030BD0A4B09A92846D3F8E02042F04002B5
:10228800C3F8E020D3F8E03003F040030693069B40
:1022980002F030FD0FB030BD1A4631E70044025855
:1022A80070B506460D4601F093FC0446304601F031
:1022B80097FC2A1E0146204618BF0122BDE870403F
:1022C80003F058B870B5002386B012220446039371
:1022D800CDE901230368032B01D804230493261DA9
:1022E8000634304601F074FC0546304601F078FCAF
:1022F800034669462846009302F0FCFC204601F09C
:1023080067FC034620461C4601F06AFC6946034602
:102318002046009302F0EEFC06B070BD634A0368E5
:10232800934210B58CB028D0614A934258D0614A84
:10233800934200F09480604A934201D00CB010BDE3
:102348005E4C5F48D4F8E03043F00203C4F8E03054
:10235800D4F8E03003F002030A930A9BFFF7B2FFB8
:10236800D4F8F43043F08003C4F8F430D4F8F430EF
:1023780003F080030B930B9BE0E7504C5148D4F8D3
:10238800E03043F00203C4F8E030D4F8E03003F062
:1023980002030193019BFFF795FFD4F8E830002270
:1023A8001F2043F400131146C4F8E830D4F8E8308D
:1023B80003F400130293029BD4F8D83043F00103CE
:1023C800C4F8D830D4F8D83003F001030393039B42
:1023D80001F04AFD1F200CB0BDE8104001F080BD9F
:1023E800364C3948D4F8E03043F08003C4F8E03084
:1023F800D4F8E03003F080030493049BD4F8E03071
:1024080043F00203C4F8E030D4F8E03003F00203EC
:102418000593059BFFF756FFD4F8E83000222120EA
:1024280043F480031146C4F8E830D4F8E83003F4E4
:1024380080030693069BD4F8D83043F00103C4F810
:10244800D830D4F8D83003F001030793079B01F084
:102458000BFD21200CB0BDE8104001F041BD1B4828
:10246800FFF730FF154B00224820D3F8E84011460B
:1024780044F40004C3F8E840D3F8E84004F4000446
:102488000894089CD3F8D84044F00104C3F8D84015
:10249800D3F8D83003F001030993099B01F0E4FC59
:1024A80048200CB0BDE8104001F01ABD00540040AF
:1024B80000580040005C0040001C005800440258CE
:1024C8002C0F0024A40C00247C0D0024540E00249E
:1024D800F0B5002287B0184B1021CDF802206F46C6
:1024E800CDF806209C46CDF80A206E46CDF80E2081
:1024F8000CF11805CDF812200CF1300EADF81620AD
:10250800FF220E4B6C46ADF800101A700FCFACE8E6
:102518000F0097E803008CE803000FCE0FC596E87C
:10252800030085E803000FCCAEE80F0094E8030031
:102538008EE8030007B0F0BD04000024A00C0024BE
:1025480010B5EFF3108472B6074B1A78120602D54D
:1025580004B962B610BD1B78D820044A5BB200FBF0
:10256800032002F0B3F9F3E7A00C0024B80C002410
:10257800014803F0A1BD00BF300D0024014803F05D
:102588009BBD00BF080E0024014803F095BD00BFA5
:10259800E00E00242DE9F0410F68D8253C4E84B0A8
:1025A80007FB05F5032F06EB0503036058DCCA6833
:1025B8000C46012A54D84FD020689C4661684FF0D9
:1025C800D808A2680DF1100EE36808FB0768ACE8AC
:1025D8000F00304B227C8CF80020D8F808C00FCBB5
:1025E8000EE90F000EEB8703BCF1010F53F8103C06
:1025F800C8F88C3042D0BCF1020F35D0BCF1000FC6
:1026080008D101F06FF9244B98420CBF234B244B9F
:10261800C8F890308C35D823217C002203FB07634F
:10262800012035444900C3E926022846C3F894101E
:10263800C3E92822C3E92A2203F022FB80B9014614
:10264800284603F045FD58B90146284603F06AFDBF
:10265800003818BF012004E00A7C103A672AABD979
:10266800012004B0BDE8F08101F03CF90A4B984222
:102678000CBF0C4B0C4BC8F89030CBE701F032F98B
:10268800054B98420CBF094B094BC8F89030C1E77D
:10269800A40C00242CF40008000E27075F43906068
:1026A8008A62E030200BA0101A0980102D0FB0307C
:1026B8003211D0202DE9F041D0F8008082B00D46CB
:1026C80017461E4608F18C04204603F0FDFC20281E
:1026D800FAD1D8F80C3073B96D002046089C3346FF
:1026E8003A46A9B2009403F021FB003818BF012034
:1026F80002B0BDE8F081089B32463946204603F017
:10270800E9FBF2E7044B10221A7483F8E82083F8F7
:10271800C02183F898227047A40C002430B5002308
:1027280095B04FF48071062204460B9306921393DA
:10273800CDE90C13CDE90E33CDE9113301F0D4F80E
:1027480007282AD004F1100541F2883206A9284644
:1027580004F02CFB28B1012384F85C30012015B06B
:1027680030BD0223102206A9284602920022CDE994
:102778000033012303934FF48003CDE9042305229A
:102788004FF0807306926A460F9341F2883304F043
:10279800A9FC0028DFD115B030BD032384F85C30D4
:1027A800DCE700BF0000000070B50023A4B04FF0C4
:1027B80080724FF480750446ADF806301B93CDE95E
:1027C8001E320122CDE91C53CDE92023CDE9223365
:1027D800002942D0F02300F1100516AEADF80630FE
:1027E800C02341F2883231462846169304F0DEFAB7
:1027F80028B1012384F85C30012024B070BD41F277
:1028080088320DF10601284604F04CFB03460028E7
:10281800EFD14FF480710522284601250892102235
:1028280010930D93159302930595CDE90E139FED23
:102838001E7B4FF08071CDE91333119141F288333B
:1028480008A9CDE9035202AA8DED067B04F04AFCE3
:102858000028D2D084F85C50CEE700F1100516AEFF
:10286800612341F2883231462846169304F09EFAD5
:102878000028BED141F288320DF10601284604F045
:102888009FFB0028B5D1BDF80630204623F0780319
:1028980043F04003ADF80630FFF740FF00289FD013
:1028A800A7E700BFAFF30080000000000000400071
:1028B8002DE9F04F00234FF4807601254FF0807802
:1028C80004462DED028BABB08DF80730219313939E
:1028D8001B9322961C95CDF89480CDE92333CDE93E
:1028E8002653CDE92833CDE91463CDE91633CDE974
:1028F800193306230E9300F0F7FF072808D004F1D8
:10290800100741F288320EA9384604F04FFA40B158
:10291800012384F85C3001202BB0BDEC028BBDE8AC
:10292800F08F02234FF010094FF0050A08AA0EA9EC
:1029380038460B95CDF85C80CDF82890CDF838A0B6
:102948009FED298BCDE9083341F288338DED0C8B4F
:1029580004F0C8FB0028DBD141F2883238461CA9B4
:1029680004F024FA0028D3D14FF0400B41F288320A
:102978000DF1070138468DF807B004F093FA0028E6
:10298800C6D141F288331CA902AA3846CDF870A0F6
:10299800CDF89480CDE902BBCDE904958DED068B89
:1029A80004F0A0FB03460028B2D1139308AA1B9396
:1029B8000EA938461496CDF838A0CDF85C80CDF82D
:1029C80028900B95CDE91533CDE91933CDE90835B4
:1029D80041F288338DED0C8B04F084FB00289BD0EA
:1029E80084F85C5097E700BF00000000000040003A
:1029F8002DE9F0435C4CA3B00E46046000F074FF70
:102A0800072800F0A480306825467168B26807C5B9
:102A1800B389284620F8043B267B677B04F0A8F995
:102A2800E0B9524B012E4FF00108E06123610CBF61
:102A38004FF400034FF48013C4E9058893FAA3F315
:102A4800B3FA83F34FF48079013BC4F82490C4E9C6
:102A58000B00281D236204F017F938B1012384F80C
:102A68005C300126304623B0BDE8F08366230B9026
:102A7800139041F2883206A90693CDE90C90CDE96E
:102A88000E00CDE91100281D04F090F90028E5D1C9
:102A9800992341F2883206A9281D069304F086F985
:102AA8000028DBD105231C9019906A4614934FF037
:102AB8008073219014A91D931023CDF80C800293E4
:102AC80041F288339FED247BCDE91A90CDE91F00B0
:102AD800CDE90008281D8DED047B04F003FB0028D8
:102AE800BCD131462046FFF75FFE0028B6D120460C
:102AF800FFF7DEFE06460028B0D1002FB2D1EB2347
:102B080006AA14A9281D14934FF44063CDF86890C1
:102B18001B934FF40053189617934FF440431C939C
:102B2800A0231693062319934FF080539FED0C7B37
:102B380021934FF04073CDE91F661D938DED067B01
:102B480004F05EFB00288DD084F85C8089E70323BD
:102B580084F85C3085E700BF0000000000004000FA
:102B6800000000000000000008100024005000527F
:102B78002DE9F04F8FB0414B0024026800AF9A4214
:102B88007C63C7E90944C7E90B4403D03C37BD4619
:102B9800BDE8F08F3A4B40F609213A48EA46D3F8A7
:102BA800D42007F11C0607F1220B4FF0020942F46A
:102BB80080424FF00308C3F8D420D3F8D42002F49D
:102BC8008042BA60BA68D3F8E02042F04002C3F805
:102BD800E020D3F8E02002F04002FA60FA68D3F867
:102BE800E02042F02002C3F8E020D3F8E02002F011
:102BF80020023A613A69D3F8E02042F01002C3F8A3
:102C0800E020D3F8E02002F010027A617A69D3F864
:102C1800E02042F00202C3F8E020D3F8E030F86187
:102C280003F002033984BB61174B7B60BB697B6887
:102C380053F8040F7B6000F0CBFF7B6805461868EB
:102C480000F0CEFF16F8013B786207F12401284610
:102C5800C7F830807B63C7E90A9402F04BF85E45F9
:102C6800E5D100225C20114601F0FEF85C2001F05D
:102C780037F93C37D546BD46BDE8F08F00500052C5
:102C8800004402580A0A090964100024114B02681A
:102C98009A4200D07047104A70B5D2F8D4300F4C21
:102CA80023F4804304F11806C2F8D43054F8040F12
:102CB80000F08EFF0546206800F092FF0146284686
:102CC80002F026FAB442F1D15C20BDE8704001F070
:102CD80015B900BF00500052004402586410002487
:102CE800014804F01BBB00BF18100024084B1A1D34
:102CF800981D03F1080110B49C1C9A6603F10A029E
:102D0800C3E91834C3E91B015DF8044B5A677047DF
:102D1800081000242DE9F041821D05468AB0031DE4
:102D280005F10A010830CDE9052305F10C02AB696C
:102D3800CDE907010992002B3BD0EF69B7FA87F775
:102D48007F090123022205AE4FF006080393CDE95F
:102D5800012356F8044B2B792278934217D02B681D
:102D6800F3B1012B02D1F2B10A230493204600F0FB
:102D780037FF03462046009300F02AFF694601F01A
:102D8800B9FF0AAB9E42E4D10AB0BDE8F081697987
:102D980063789942E3D1002FF3D02B68002BE0D160
:102DA800CDF81080E2E76378022B0CBF08230A23D2
:102DB800DBE70127C5E700BFA04A0368934270B567
:102DC80005468AB07FD0203293427CD09C4A9342F9
:102DD80004D02032934201D00AB070BD994C9A4871
:102DE800D4F8E03043F00103C4F8E030D4F8E03020
:102DF80003F001030593059BD4F8E03043F0080382
:102E0800C4F8E030D4F8E03003F008030693069BDA
:102E1800D4F8E03043F04003C4F8E030D4F8E030B0
:102E280003F040030793079BD4F8F03043F4000302
:102E3800C4F8F030D4F8F03003F400030893089B8A
:102E4800FFF768FFD4F8D820804B42F001022968C8
:102E5800D3F85C02C4F8D820D4F8D82002F00102D4
:102E68000992774A099C914200F0AB80D3F88022FE
:102E7800013A18BF01229201002840F0CC80744822
:102E8800582103F22C4403F54775C3F82C0400239A
:102E98002046C4E901124FF480524FF48061636206
:102EA80062614FF48042C4E903314FF48073C4E98E
:102EB80006234FF40033236201F088F9002800F05C
:102EC8009580FFBEFEE75F4C604ED4F8E030304698
:102ED80043F00103C4F8E030D4F8E03003F0010314
:102EE8000093009BD4F8E03043F01003C4F8E030BE
:102EF800D4F8E03003F010030193019BD4F8E030DC
:102F080043F04003C4F8E030D4F8E03003F0400365
:102F18000293029BD4F8F03043F48003C4F8F030F5
:102F2800D4F8F03003F480030393039BFFF7F2FE19
:102F3800D4F8D830296843F00103404A3068C4F80F
:102F4800D8309142D4F8D83003F001030493049B9D
:102F580027D0736A013B18BF01239B01002852D177
:102F68003B4A06F5E8745821C036C6F810210022FD
:102F78002046C4E901134FF480534FF48061626224
:102F880063614FF48073C4E903214FF48042C4E9BC
:102F980006234FF40033236201F018F908B3FFBE8B
:102FA800FEE7336A013B18BF01239B0118BB02F5FA
:102FB800284206F5AC74572128360C32C6F8302161
:102FC800D5E7D3F87C22013A18BF0122920158BBF9
:102FD8002048572103F56D7403F52175C3F8B40330
:102FE80055E7C6E92044A6630AB070BDC5E9204488
:102FF800A5630AB070BD184A06F5AC745921283685
:10300800C6F83021B3E7154A06F5E8745A21C036E8
:10301800C6F81021ABE711485A2103F22C4403F5F6
:103028004775C3F82C0432E70B48592103F56D7432
:1030380003F52175C3F8B40329E700BF045801401C
:10304800045C014000440258DC1200248010002473
:103058002800024010000240580002407000024060
:10306800014801F033BC00BFD8110024014801F029
:103078002DBC00BF50120024014801F027BC00BF3E
:1030880034140024014801F021BC00BFAC14002412
:103098001A4A0368934210B40BD02032934208D0E6
:1030A800174A934216D02032934213D05DF8044B4E
:1030B8007047144B0022D3F85442C3F85822002C0E
:1030C800F4D0D3F84802D3E9931223465DF8044BB1
:1030D800520818470B4B0022D3F8B044C3F8B42465
:1030E800002CE3D0D3F8AC24D3F8A814D3F8A40464
:1030F800520823465DF8044B184700BF04580140A6
:10310800045C014080100024184A0368934210B4FC
:103118000BD02032934208D0154A934217D0203260
:10312800934214D05DF8044B7047124BD3E99424B2
:103138005208C3F85822002CF4D0D3E99201234650
:1031480001EB820100EB82005DF8044B1847094B44
:10315800D3F8AC24D3F8B0445208C3F8B424002CF4
:10316800E0D0D3F8A814D3F8A404E8E70458014041
:10317800045C0140801000242DE9F04F0C684FF4E6
:103188001777774E87B004FB07F7012C06EB070883
:10319800C0F8008000F39C804FF0000907F5127317
:1031A8000D468E4646F803903344C446C3F804904F
:1031B800C8F8509266A3D3E9002367A1D1E90001BA
:1031C800CDE902230DEB8403CDE90401D3F808B05F
:1031D800D3F810A0BEE80F00ACE80F00BEE80F005F
:1031E800ACE80F009EE80300C8F828B0C8F8C0A0F3
:1031F8008CE803002B69042B0DD8DFE803F07D87EA
:10320800910374004FF417734BF6803203FB046389
:103218009A64C3F8E020AA69296A002A54D00029D0
:103228004FF0010214BF032102214FF4177303FB6F
:103238000463C3E90B12EA69696A002A4CD10039B0
:1032480018BF012168694FF41773022803FB046350
:10325800C3E9311206D8434B13F80090424B53F898
:10326800203001934FF417730022404907F12800DA
:1032780004FB03F3304403F1380403F1500C03F169
:10328800D0050A510C44626003F1E80433445A64DF
:103298005A6341F80C208C44CCF80420DA654A5172
:1032A8000D446A60C3F8DC20C3F8CC200A510C44F2
:1032B80001996260C3F8F42002234A4606F074F9C3
:1032C800002837D0FFBEFEE7003918BF0121ACE760
:1032D800012007B0BDE8F08F00294FF0010214BFAC
:1032E80003210221AEE74FF41773214A03FB04635D
:1032F8009A64C3F8E0208EE74FF417734FF4FA523C
:1033080003FB04639A64C3F8E02084E74FF417735F
:103318004FF47A5203FB04639A64C3F8E0207AE717
:103328004FF417734FF4FA4203FB04639A64C3F82B
:10333800E02070E707F1C00002234A4601993044B3
:1033480006F032F90028C4D0FFBEFEE7AFF30080D4
:1033580004580140045C014024580140245C0140A9
:103368008010002480F4000874F4000884100024FD
:103378000077010000687047F8B504689DB20F46F1
:103388001646C4F85032069BC4F85432A369012B80
:10339800C4E9921222D0636A2A46012B0FD0314623
:1033A80004F1C00006F0B2F9236A2A46012B0ED0B8
:1033B800314604F1280006F0A9F90020F8BD04F10F
:1033C800C00006F02BFA236A2A46012BF0D13946B1
:1033D80004F1280006F022FA0020F8BD236A2A46E4
:1033E800012B0FD0314604F1280006F08FF9636AEB
:1033F8002A46012B0ED0314604F1C00006F086F9AA
:103408000020F8BD04F1280006F008FA636A2A468D
:10341800012BF0D1394604F1C00006F0FFF9002075
:10342800F8BD00BF03681B69042B05D8044A02EBEA
:10343800830393ED000A70479FED020A704700BFAF
:1034480060F4000800803B470368D3F858027047CF
:10345800704700BF08B500F0CBFCBDE8084000F09D
:10346800C7BD00BF064808B503680BB101F086FF69
:10347800044803681BB1BDE8084002F07FBE08BDE0
:103488004819002440150024064808B503680BB104
:1034980001F074FF044803681BB1BDE8084002F05E
:1034A8006DBE08BD4819002440150024064808B51B
:1034B80003680BB101F062FF044803681BB1BDE863
:1034C800084002F05BBE08BD4819002440150024DE
:1034D800364BDA6A520062D59A6A9A6A9A6A9B6A85
:1034E800180600D500BE314B9B6A990600D500BE70
:1034F8002E4B9B6ADA0600D500BE2C4B9B6A1B0735
:1035080000D500BE294B9B6A980700D500BE274B03
:103518009B6AD90700D500BE244B9B6A1A0400D5C4
:1035280000BE224B9B6A9B0400D500BE1F4B9B6AC2
:10353800D80400D500BE1D4B9B6A190500D500BEF6
:103548001A4B9B6A5A0500D500BE184B9B6A9B050F
:1035580000D500BE154B9B6AD80500D500BE134B9D
:103568009B6A990100D500BE104B9B6ADA0100D511
:1035780000BE0E4B9B6A1B0300D500BE0B4B9B6A1B
:10358800580300D500BE094B9B6A990300D500BEBD
:10359800064B9B6ADA0306D400BE00BEFEE7DB6A70
:1035A8009B07FAD5F8E700BEF6E700BF00ED00E09C
:1035B80000F030BC0A4B9B6803F17843B3F5003F39
:1035C8000BD3084B986848B19868012806D09868CA
:1035D800022803D09868032070470120704700BF75
:1035E80000ED00E0000080382DE9F043CFB005463B
:1035F8004C2200210AAC20460BF04AFD2022002173
:1036080002A80BF045FDBC2200211EA80BF040FDCE
:10361800022003F047FA2B68012B54D053490022AB
:1036280002260192C86A524A20F00100C862C820E6
:10363800C96A01F001010191916941F44041916128
:10364800926902F440420192019B494A93699904A4
:10365800FCD548490225002201278B6A4FF004094E
:103668004FF0080823F003032B438B6205232063E4
:103678002046A3634FF48033A7616563E563C4F80C
:103688004080C4E911222122CDE91355CDE90A234E
:10369800C4F82C9003F04AFF00B1FEE740233F2214
:1036A8004FF4806404900993314602A8CDF8148041
:1036B8000894CDE906330323CDE9022304F050FA38
:1036C8000346C8B1FEE72A4900226B460426009249
:1036D8008869264A40F440408861F020896901F4ED
:1036E80040410091D16A41F00101D162D26A02F0F1
:1036F800010200921B68A8E74FF480324FF4805112
:103708002C94062446921EA83591CDF88480CDF8D5
:10371800A8901F97239722952F953395CDE92531AA
:10372800CDE93032CDE92D3300224FF48071CDE957
:103738003B334FF4401343911021CDE93E2340F22F
:10374800271280232991249334930C23CDE927420F
:10375800202220932B92084A1E9204F04BFC00B1C1
:10376800FEE703F0C5F94FB0BDE8F0830004005848
:1037780000480258004402580F130F0370B584B074
:10378800012400F0E3FB4FF480764FF04052194BD0
:103798006846ADF80040019200250293039600F0B8
:1037A800F3FB192368468DF80F408DF808304FF069
:1037B8004043ADF80D6001938DF801408DF80A5033
:1037C80000F0E2FB02230B2268468DF80F508DF8BB
:1037D80001304FF062538DF808200193ADF80D4089
:1037E8008DF80A4000F0D0FB042000F0BDFB04B0C7
:1037F80070BD00BF0E00010330B50C46054685B00C
:10380800D1E9000185E8030000F0C2FAA379A3B367
:1038180009F06CFAFEF75CFE07F0FEFE08F054FFB4
:1038280023798BBB63799BB1BFF34F8FBFF36F8F46
:103838002A4B0022C3F85022BFF34F8FBFF36F8F7C
:103848005A6942F400325A61BFF34F8FBFF36F8F4A
:103858004FF0FF32002300240025694620480292D9
:103868008DF80C30CDE9004508F0D4FA1C4808F072
:1038780035FB07F091FB05B030BD2846FFF7B4FED5
:103888002846FFF77BFFC3E714490023C1F88430BB
:10389800BFF34F8FD1F8805043F6E07EC5F34E3C1E
:1038A800C5F3C9054FEA4C1C0CEA0E002B4640EA4A
:1038B8008372013BC1F860225A1CF8D1ACF1200C8C
:1038C8001CF1200FF0D1BFF34F8F4B6943F48033C5
:1038D8004B61BFF34F8FBFF36F8FA3E700ED00E09D
:1038E8003815002404F06EBA1C4B9B6803F178422B
:1038F800B2F5003F25D3B3F5803F20D303F16042F2
:10390800B2F5003F1FD303F15C42B2F5002F1CD380
:1039180003F17042B2F5902F19D303F14842B2F582
:10392800803F16D303F18042B2F1806F13D303F1C5
:10393800E043B3F5000F34BF07200820704701208B
:10394800704700207047022070470320704704200A
:103958007047052070470620704700BF00ED00E063
:1039680010B400230348044A04495DF8044B03607B
:103978000BF090BA381500240000002459340008D0
:1039880010B4204C83B0204B0022D4F888001F4983
:1039980040F47000C4F8880018681D4C40F001001D
:1039A80018601A611868014019609A61DA611A6230
:1039B8009A62DA621A635A639A63DA631A645A6417
:1039C800196821F4802119601A66D3F8DC2042F0C6
:1039D8006042C3F8DC20D3F8DC300193019B2368F4
:1039E8006FF30F03B3F1005F03D20A4B0122C3F850
:1039F8000821044B4FF000629A6003B05DF8044B55
:103A0800704700BF00ED00E0004402587FEDF6EA81
:103A18000010005C0080005100F57171D0F80404BA
:103A280006F0B8BEC1EBC10300EB8303D0F8040471
:103A3800D3F8082206F0DCBEC1EBC10300EB830318
:103A4800D0F804049A6C06F00BBF00BFD0F8040449
:103A580006F0A6BFC16810B5044619B1022900D006
:103A6800FEE70121D4F8040406F084FFD4F8040426
:103A7800BDE8104006F056BF10B50446D0F804045F
:103A880006F07CFF2268D2F8003E43F00103C2F83A
:103A9800003E236A23B1034A136943F00603136106
:103AA80010BD00BF00ED00E0D0F8040406F070BFC0
:103AB800D0F8040406F084BFD0F8040406F07EBFF2
:103AC800D0F8040406F07EBFD0F8040406F07CBFEA
:103AD8009446D0F898021A4608B5634602F0E0FE0C
:103AE80018B102280CBF0120022008BD08B5D0F883
:103AF800980202F05BFF18B102280CBF01200220D7
:103B080008BD00BF08B5D0F8980202F091FF18B1BF
:103B180002280CBF0120022008BD00BF0A06D0F809
:103B2800983206D4C1EBC10103EB810393F8FE017F
:103B3800704701F07F01C1EBC10103EB810393F8EA
:103B48003E00704708B5D0F8980202F093FE18B10D
:103B580002280CBF0120022008BD00BF08B5D0F81C
:103B6800980202F0FBFE18B102280CBF01200220C7
:103B780008BD00BF08B5D0F8980202F0C9FE18B118
:103B880002280CBF0120022008BD00BFD0F8C002E7
:103B980007F0BCB9D0F8C00207F0D0B9D0F8C0021D
:103BA80007F0D8B9704700BFD0F8C00207F0BEB917
:103BB800D0F8C00207F0BEB908B5D0F8D00301F0BC
:103BC80091FF18B102280CBF0120022008BD00BFD8
:103BD800024B027853F82200704700BFB4F4000883
:103BE800024B427833F81200704700BF94F4000883
:103BF8008CB00A2814D8DFE800F023313F4D5B6908
:103C08007785930615004D4BD3F8E02042F40072F7
:103C1800C3F8E020D3F8E03003F400730A930A9B5A
:103C28000CB07047454BD3F8E02042F48062C3F8EB
:103C3800E020D3F8E03003F480630B930B9BEFE7AD
:103C48003E4BD3F8E02042F00102C3F8E020D3F85D
:103C5800E03003F001030193019BE1E7374BD3F810
:103C6800E02042F00202C3F8E020D3F8E03003F08D
:103C780002030293029BD3E7304BD3F8E02042F0D3
:103C88000402C3F8E020D3F8E03003F00403039300
:103C9800039BC5E7294BD3F8E02042F00802C3F89C
:103CA800E020D3F8E03003F008030493049BB7E75F
:103CB800224BD3F8E02042F01002C3F8E020D3F8FA
:103CC800E03003F010030593059BA9E71B4BD3F8DD
:103CD800E02042F02002C3F8E020D3F8E03003F0FF
:103CE80020030693069B9BE7144BD3F8E02042F091
:103CF8004002C3F8E020D3F8E03003F04003079314
:103D0800079B8DE70D4BD3F8E02042F08002C3F803
:103D1800E020D3F8E03003F080030893089B7FE7A6
:103D2800064BD3F8E02042F48072C3F8E020D3F8C1
:103D3800E03003F480730993099B71E7004402584B
:103D4800704700BF0F4B1B780BB90120704710B5A7
:103D580004464FF47A700C4AB0FBF3F31068B0FBDA
:103D6800F3F000F0DDF80F2C00D808B1012010BDE9
:103D7800002221464FF0FF3000F076F8034B002078
:103D88001C6010BD5400002450000024580000247A
:103D980038B50320124C00F055F8124D03F052FECE
:103DA800114A12499369C3F30323E35C03F01F0329
:103DB80020FA03F30E202B60926902F00F02A25C36
:103DC80002F01F02D3400B60FFF7BCFF10B10124C3
:103DD800204638BD0446FFF7B3FF204638BD00BF74
:103DE80084F4000850000024004402584C000024C9
:103DF800034A044B11681B780B441360704700BFDB
:103E08000C1C002454000024014B1868704700BFA4
:103E18000C1C002438B50446FFF7F6FF0546631C62
:103E280002D0044B1B781C44FFF7EEFF401BA04256
:103E3800FAD338BD54000024014B1868000C7047B1
:103E48000010005C06494FF6FF0C0002054BCA68DB
:103E580000F4E06002EA0C0210430343CB607047B1
:103E680000ED00E00000FA051A4BDB68C3F30223FB
:103E780000B5C3F1070E03F1040CBEF1040F28BF0F
:103E88004FF0040EBCF1060F1AD9A3F1030C4FF042
:103E9800FF3303FA0CF322EA03024FF0FF33002842
:103EA80003FA0EF321EA030303FA0CF343EA0203CD
:103EB8004FEA0313DBB206DB074A13545DF804FB31
:103EC80000229446E9E700F00F00044A13545DF815
:103ED80004FB00BF00ED00E000E400E014ED00E0AA
:103EE800002807DB00F01F0101234009024A8B402C
:103EF80042F82030704700BF00E100E000280CDBEA
:103F08004309012200F01F0004492033824041F890
:103F18002320BFF34F8FBFF36F8F704700E100E09E
:103F2800431EB3F1807F01D3012070474FF0E02298
:103F3800002005494FF0F00C5361072381F823C096
:103F480090611361704700BF00ED00E0BFF35F8F21
:103F5800044B00215A6A22F480325A62C3F8941042
:103F6800704700BF00ED00E0064B40F00100C3F8C9
:103F780094005A6A42F480325A62BFF34F8FBFF3FB
:103F88006F8F704700ED00E0174A4378C2F8983009
:103F9800017821B3436800B5C2F89C30C37A90F821
:103FA8000CC01B0690F80FE043EA0C7390F80AC0A7
:103FB8000B43817B43EACC4390F80DC043EA8C4322
:103FC80090F809C043EA4143017A43EA0E4343EAC1
:103FD8000C2343EA4103C2F8A0305DF804FBC2F8A1
:103FE8009C10C2F8A010704700ED00E0704700BFB9
:103FF80008B5FFF7FBFF08BD3649024603688B4248
:1040080033D01831591AB1FA81F1490969BB3248DC
:10401800834239D0183083423ED01830834239D099
:10402800183083423BD0183083423ED01830834248
:104038002FD000F55670834235D028498B4231D0B5
:1040480018318B4234D018318B4234D018318B421E
:1040580034D018318B4234D018318B4234D01831D7
:104068008B4234D023F0FF0011E0DBB21C491D481D
:10407800103BA1FB031310B41B091B4CE15C5DF85A
:10408800044BC2E91601704710211648D1659065A6
:10409800704716211548F9E716211248F6E7062158
:1040A8001248F3E706211248F0E710210F48EDE720
:1040B80010210F48EAE716210D48E7E700210D48CF
:1040C800E4E706210B48E1E710210A48DEE716215C
:1040D8000848DBE710000240400002402804024084
:1040E800ABAAAAAA00000240E4F4000804000240B7
:1040F80000040240040402400268284B284930B4F6
:10410800284D294CAA4218BF9A420CBF012300230C
:104118008A4208BF43F001032831A24208BF43F096
:10412800010328348A4208BF43F001032831A24220
:1041380008BF43F001038A4208BF43F00103D1B22C
:1041480013B91A4B9A4211D1A1F10803184C194A14
:104158000121A4FB0343184C1D0902EB1313A940CA
:104168009B008166C0E9183430BC7047A1F1100388
:104178001249134C1144A4FB0343A8294FEA131313
:1041880008D903F01F040F4A01211A44A1400E4C1C
:104198009300E6E708331C46F5E700BF08540258C9
:1041A800305402581C54025844540258945402582B
:1041B800CDCCCCCC0096001680580258F0FBFDBF41
:1041C800ABAAAAAA008200108008024070B5054672
:1041D800FFF71AFE002D00F0A9802B6804468E4ACE
:1041E8008E498B4218BF934201F118010CBF01227E
:1041F80000228B4208BF42F0010218318B4208BFEF
:1042080042F0010218318B4208BF42F00102183116
:104218008B4208BF42F0010218318B4208BF42F0BE
:10422800010218318B4208BF42F0010201F55671B4
:104238008B4208BF42F0010218318B4208BF42F09E
:10424800010218318B4208BF42F0010218318B423B
:1042580008BF42F0010218318B4208BF42F0010248
:1042680018318B4208BF42F0010218318B4208BF57
:1042780042F001021AB96A4A934240F0DF800222F2
:10428800002185F8352085F834101A6822F00102DB
:104298001A6005E0FFF7B8FD031B052B41D82B6812
:1042A8001A68D107F6D4D5E9022429692243A869F6
:1042B8001C680A4369690A43E96902430A43594980
:1042C80021402C6A22430A43696A042930D01A60C3
:1042D8005A6922F00702114359612846FFF78CFEFC
:1042E800EA6D3F2302F01F02934083602846FFF7E0
:1042F80003FFAB68A96E802BD5E918426BD06B68B9
:10430800D8B2013B072B206051602ED90023C5E9A4
:104318001B336B67002301226B65184685F835202F
:1043280070BD202203236A6585F83530012070BDF1
:10433800D5E90B4121431143AA6A1960596921F053
:104348000701114341F00401002CC5D0002847D1D2
:10435800012A5BD032F00202BED1E201BCD5402274
:1043680001236A6585F83530E0E72A68411E2E4B3F
:104378002E4CA24218BF9A4204F114040CBF012328
:104388000023A24208BF43F001031434A24208BF2D
:1043980043F001031434A24208BF43F0010314346C
:1043A800A24208BF43F001031434A24208BF43F0FD
:1043B80001031BB91E4B9A4240F09A801D4A1E4CBD
:1043C8000244920001238B400021C5E91B246B673E
:1043D800116063609EE700236B602360516095E77E
:1043E800B0F5005F04D0022AB9D9032AB5D073E723
:1043F800032A3FF671AF01A050F822F06743000886
:10440800634300086743000815440008B4F1C07FFF
:104418007FF462AFA3E700BF10000240280002400B
:10442800B80402403F8010FE085402581C54025839
:10443800945402583F96001640590258334A34485B
:104448003449834218BF934200F128000CBF01226F
:1044580000228B4208BF42F001022831834208BF84
:1044680042F0010228308B4208BF42F00102283195
:10447800834208BF42F001028B4208BF42F00102AA
:1044880012B9254A93423AD100200221AA6885F838
:10449800340085F83510402A1C686FF310142CD0AE
:1044A800A2F18002B2FA82F252099103EE69D5E9CB
:1044B800032010436A691043AA691043174A30431E
:1044C8002E6A1A4444EA161444EAD00001431448F8
:1044D800A0FB02022846196013099B00EB65FFF751
:1044E8008BFDE96D012201F01F018A404260FDE663
:1044F8000C4A0D4C0244920064E71021D6E7402292
:1045080003236A6585F8353010E700BF0854025860
:104518001C5402583054025894540258F8ABFDA762
:10452800CDCCCCCC3F82001040090240002800F0DE
:1045380022812DE9F04F90F8344083B0012C00F02F
:10454800C380012480F8344090F83540012C09D00C
:1045580000224FF4006380F834204365012003B043
:10456800BDE8F08F0224864D864E80F83540002441
:10457800854F44650468D0F85890B44218BFAC42DF
:1045880005F13005A6F160060CBF4FF0010E4FF0A3
:10459800000EAC4208BF4EF0010E05F55675AC4250
:1045A80008BF4EF0010E1835AC4208BF4EF0010EA0
:1045B8001835AC4208BF4EF0010E1835AC4208BFA2
:1045C8004EF0010E1835AC4208BF4EF0010E1835FA
:1045D800AC4208BF4EF0010EA5F58665B44218BF7F
:1045E800AC4205F58965C66E0CBF4FF001084FF067
:1045F8000008AC4208BF4EF0010EA5F58665AC4236
:1046080008BF48F0010805F58965AC4208BF4EF0BF
:10461800010EA5F59265AC4218BFBC4227684EEA68
:10462800080C0CBF0125002527F001070195D0E9EA
:1046380019AB2760CAF804B002D0BCF1000F47D00C
:104648003EB1D0E91C757D60019D15B9BCF1000F24
:1046580042D0C76D07F01F0A3F2707FA0AF7C9F8C3
:104668000870276827F48027276063608368402BD9
:1046780027D0A160E260019B13B9B8F1000F76D092
:10468800236823F01E0343F016032360036C1BB159
:10469800236843F008032360036E1A68D20303D526
:1046A8001A6842F480721A601EB1336843F480734A
:1046B80033602368002043F00103236003B0BDE8A2
:1046C800F08FA260E160D6E7022003B0BDE8F08F6A
:1046D80016B1D0E91C757D602C4FDFF8B8E0744541
:1046E80018BFBC420EF1140E0CBF012700277445F9
:1046F80008BF47F001070EF1140E744508BF47F0D4
:1047080001070EF1140E744508BF47F001070EF1BA
:10471800140E744508BF47F001070EF1140E7445D6
:1047280008BF47F0010717B9194FBC420DD1C76D33
:1047380007F01F0E012707FA0EF7C9F80470636027
:104748008368402B19D0A160E2602268016C22F0D6
:104758000E02036E42F00A02226000299DD02268F0
:1047680042F0040222601A68D10399D49CE7BEF192
:10477800000F85D1E9E701207047A260E160E4E716
:1047880088000240A000024010000240085402586D
:10479800945402581C540258002860D090F83530C0
:1047A800022B5AD10268454B454910B5454CA242E7
:1047B80018BF9A4204F130040CBF012300238A4237
:1047C80008BF43F001033031A24208BF43F00103A0
:1047D80030348A4208BF43F001033031A24208BF97
:1047E80043F0010330348A4208BF43F0010301F566
:1047F8005C71A24208BF43F0010304F55C748A426D
:1048080008BF43F001033031A24208BF43F001035F
:1048180030348A4208BF43F001033031A24208BF56
:1048280043F0010330348A4208BF43F001033031BA
:10483800A24208BF43F001038A4208BF43F00103C4
:1048480013B9214B9A420CD1042380F835301368F0
:1048580023F001031360002010BD8023436501206D
:1048680070471368046E23F00E03C16DD0F858C06A
:10487800136001F01F01136823F001031360012383
:1048880022688B4022F480722260CCF80430C36E18
:10489800D0E91921516033B11A68D0E91C1422F407
:1048A80080721A604C6000210122036D80F8341078
:1048B80080F83520002BCED09847CCE71000024076
:1048C8004000024028000240B8040240F0B500222F
:1048D800944B83B0856D07461E680192924B02681F
:1048E80092482C68824218BF9A4200F11800296841
:1048F8000CBF01230023824208BF43F00103183094
:10490800824208BF43F001031830824208BF43F0D7
:1049180001031830824208BF43F001031830824275
:1049280008BF43F001031830824208BF43F0010377
:1049380000F55670824208BF43F0010318308242E6
:1049480008BF43F001031830824208BF43F0010357
:104958001830824208BF43F001031830824208BF72
:1049680043F001031830824208BF43F001031830B6
:10497800824208BF43F001031BB96D4B9A4240F0D5
:104988002F81FB6D082103F01F03994021420BD0B2
:104998001068400708D5106820F004001060A9606E
:1049A800796D41F00101796524FA03F1C80709D549
:1049B8005169090606D501219940A960796D41F030
:1049C8000201796504219940214207D010688007C7
:1049D80004D5A960796D41F00401796510219940E9
:1049E800214200F0B0801068000740F1AC80A96057
:1049F800116811F4802F116840F09E80C90503D416
:104A0800116821F008011160396C002900F09B80C1
:104A180038468847FB6D202103F01F039940214247
:104A280053D03A684048414CA24218BF824204F130
:104A380018040CBF01200020A24208BF40F001006A
:104A48001834A24208BF40F001001834A24208BF3F
:104A580040F001001834A24208BF40F001001834A9
:104A6800A24208BF40F001001834A24208BF40F03B
:104A7800010004F55674A24208BF40F00100183442
:104A8800A24208BF40F001001834A24208BF40F01B
:104A980001001834A24208BF40F001001834A242B5
:104AA80008BF40F001001834A24208BF40F00100DE
:104AB8001834A24208BF40F00100002847D11C4822
:104AC800824244D01068800744D47B6D002B70D09C
:104AD8007B6DDC071ED53A68042187F83510154927
:104AE8001368A1FB066123F00103890A136002E041
:104AF8001368D80704D5019B01338B420193F7D97A
:104B0800002387F834301368DB074CBF03230123E5
:104B180087F83530FB6C002B4BD0384603B0BDE826
:104B2800F0401847500000241000024028000240BE
:104B3800B8040240B5814E1B08037FF565AFB96C18
:104B480000297FF465AF202199400C42BDD0106840
:104B5800C406BAD5A96097F8351004290ED0136891
:104B680013F4802F136826D01D0331D5FB6B002B5F
:104B7800ABD0384698477B6DDBB1A9E7116821F0C7
:104B880016011160516921F080015161396C19B326
:104B9800116821F0080111603F22002102FA03F395
:104BA8000122AB603B6D87F8341087F83520002B65
:104BB800B3D103B0F0BD13F48073D7D1116821F0DD
:104BC80010011160012287F8343087F83520CDE7CD
:104BD8007B6C002BCDD178E7B96C0029D8D1DBE705
:104BE800404B4148824218BF9A4200F114000CBF62
:104BF80001230023824208BF43F00103143082429C
:104C080008BF43F001031430824208BF43F0010398
:104C18001430824208BF43F001031430824208BFB7
:104C280043F0010313B9314B9A42C2D1F86D042401
:104C3800136800F01F0084400C420BD05E0709D5B2
:104C480019046C6032D5DA0336D4BB6C002B7FF4C0
:104C580064AFAEE7022484400C420BD09E0709D50E
:104C680019046C602DD5DA0337D47B6C002B7FF4E4
:104C780054AF9EE7082484400C429AD01B0798D56D
:104C88001368002123F00E0313600123FA6C03FA62
:104C980000F068607B6587F8341087F83530002AA3
:104CA80087D0384603B0BDE8F04010479B0603D4D0
:104CB800136823F0040313603B6C002B7FF42DAFC3
:104CC80077E713F0200308D11168012021F00A01C9
:104CD800116087F8343087F83500FB6B002B7FF4C0
:104CE8001CAF66E7085402581C54025894540258E2
:104CF800406D70470B68002B00F0ED81824A9042AE
:104D08004FF000022DE9F04F85B000F0F8804FF029
:104D180001084FF0B04E42E04FEAD20C02F007050E
:104D28000F694FF00F0A00EB8C0CAD00DCF82090F7
:104D3800AF400AFA05F529EA05054FF003092F43A4
:104D480004F00305CCF820705700D0F800C009FA29
:104D580007F9BD402CEA090C6FEA090B45EA0C0576
:104D680005608D6805FA07FCD0F808902409CD681D
:104D780009EA0B09944005FA07F747EA090787602B
:104D8800476827EA060634434460C46804EA0B040B
:104D980044EA0C04C460013233FA02F479D008FA08
:104DA80002F616EA0309F6D04C6824F01005022D25
:104DB800B2D057004FF0030C05F1FF3AD0F800B01D
:104DC8000CFA07FC04F00305BAF1010F2BEA0C0BEF
:104DD80005FA07F545EA0B056FEA0C0B05608D68C7
:104DE80005FA07FCC0D9C6680BEA060545EA0C05B2
:104DF800C560E500CFD5454E22F003074FF00F0CF4
:104E0800D6F8F45007F1B04745F0020507F580677A
:104E1800C6F8F450D6F8F45002F0030605F002057F
:104E2800B60003950CFA06FC039DBD6825EA0C0A3A
:104E3800374DA8425ED0374DA8422DD0DFF8D8C0F4
:104E4800604500F04281DFF8D4C0604500F044813D
:104E5800DFF8CCC0604500F03181DFF8C8C060459C
:104E680000F04181DFF8C0C0604500F04381DFF801
:104E7800BCC0604500F04581DFF8B4C060450CBF98
:104E88004FF0090C4FF00A0C0CFA06F64AEA060530
:104E980008E005B0BDE8F08F4FF0020C0CFA06F6FA
:104EA8004AEA0605BD606FEA0906DEF88050E703A6
:104EB80054BF354049EA0505A703CEF88050DEF80F
:104EC800845054BF354049EA0505E702CEF88450BE
:104ED800DEF8005054BF354049EA0505A402CEF873
:104EE8000050DEF8045054BF354049EA0505CEF8B5
:104EF800045050E708FA06F64AEA0605D2E7DFF852
:104F08000CB04FF0B0467BE0000002580044025855
:104F18000004025800080258000C025800100258F9
:104F28000014025800180258001C025800200258A9
:104F3800002402580CF1FF374FEA420ED0F800A0C7
:104F480004F003080197032708FA0EF807FA0EFC85
:104F58002AEA0C0A6FEA0C0C48EA0A08C0F8008032
:104F68008F6807FA0EF8019F012F40F28180C5680B
:104F780005EA0C0545EA0805C560E5003BD5DBF800
:104F8800F45022F0030C0F2745F002050CF1B04C49
:104F9800CBF8F4500CF5806CDBF8F45005F0020502
:104FA8000395039D02F00305DCF808E0AD0007FA5D
:104FB80005F5E7032EEA0505CCF808506FEA090C59
:104FC800D6F8805077D405EA0C05A703C6F88050B8
:104FD800D6F884506CD40CEA0505E702C6F884506C
:104FE800356862D40CEA0505A7023560756859D49E
:104FF8000CEA05057560013233FA02F43FF449AF53
:10500800012404FA02F513EA0509F4D04C6824F0E7
:10501800100CBCF1020F8DD102F0070C0F694FEA9A
:10502800D20E4FEA8C0C00EB8E0E07FA0CF90F2704
:10503800DEF8208007FA0CFC032728EA0C0849EA66
:105048000808CEF820804FEA420ED0F8009004F00D
:10505800030807FA0EFC08FA0EF829EA0C096FEAA9
:105068000C0C48EA0908C0F800808F6807FA0EF8A7
:10507800D0F808902409CF6809EA0C09944007FA87
:105088000EFE4EEA090EC0F808E0D0F804E02EEA59
:1050980005052C434460C46804EA0C0448EA040487
:1050A800C460A8E749EA0505A4E749EA05059BE7BE
:1050B80049EA050591E749EA050586E74FF0050C39
:1050C8000CFA06F64AEA0605ECE6032505FA06F6A2
:1050D8004AEA0605E6E670474FF0040C0CFA06F6B5
:1050E8004AEA0605DEE64FF0060C0CFA06F64AEA2E
:1050F8000605D7E64FF0070C0CFA06F64AEA06054D
:10510800D0E64FF0080C0CFA06F64AEA0605C9E69E
:10511800002900F00881894B98422DE9F04F00F0F2
:105128009A8000234FF001084FF00F0A4FF0B04764
:1051380008FA03F212EA010E77D023F0030603F00F
:1051480003047F4D06F1B046E400A8420AFA04F9C8
:10515800D6F808C406F5806609EA0C0C27D0794D04
:10516800A8426ED0784DA84270D0784DA84263D03E
:10517800DFF8E0B1584500F0D180DFF8DCB15845E0
:1051880000F0D280DFF8D4B1584500F0C280DFF8D3
:10519800D0B1584500F0CD80DFF8C8B158450CBFF4
:1051A8004FF0090B4FF00A0B0BFA04F401E008FA70
:1051B80004F4A44517D1B46824EA0904B460D7F804
:1051C800804024EA0E04C7F88040D7F8844024EAD7
:1051D8000E04C7F884403C6824EA0E043C607C68EE
:1051E80024EA0E047C6003245E004FEAD30C04FA20
:1051F80006F6046800EB8C0C3443046003F00704E3
:10520800DCF820E0A4000AFA04F42EEA0404CCF83E
:105218002040846824EA06048460446824EA020280
:105228004260C26822EA0602C260013331FA03F220
:105238007FF47EAFBDE8F08F4FF0040B0BFA04F457
:10524800B7E74FF0020B0BFA04F4B2E74FF0030B89
:105258000BFA04F4ADE700224FF0010C3C4C0F268A
:105268004FF0B0474FF0030E02F003030CFA02F5BB
:1052780022F00308DB0011EA0509A04406FA03F34B
:1052880041D0D8F808A013EA0A0F19D1D8F808A015
:105298002AEA0303C8F80830D7F8803023EA09035C
:1052A800C7F88030D7F8843023EA0903C7F8843078
:1052B8003B6823EA09033B607B6823EA09037B60B8
:1052C8004FEA420803684FEAD2090EFA08F800EBE1
:1052D800890943EA0803036002F00703D9F820A00C
:1052E8009B0006FA03F32AEA0303C9F8203083680F
:1052F80023EA08038360436823EA05034360C3681D
:1053080023EA0803C360013231FA02F3ACD1BDE8E5
:10531800F08F4FF0070B0BFA04F44AE74FF0050B38
:105328000BFA04F445E770474FF0060B0BFA04F448
:105338003FE74FF0080B0BFA04F43AE70000025875
:105348000004025800080258000C025800100258C5
:10535800000400580014025800180258001C025893
:10536800002002580024025803691940081E18BF7B
:105378000120704702B90904816170472DE9F04F97
:10538800056885B00446284604F0AAFF012802D023
:1053980005B0BDE8F08F206804F052FF0028F7D070
:1053A800206804F04DFF8202236802D54FF40012F2
:1053B8005A61184604F044FFC702236802D54FF427
:1053C80080125A61184604F03BFF4601236802D553
:1053D8004FF080625A61184604F032FF8007236854
:1053E80032D4184604F02CFF810000F108812068AF
:1053F80004F026FFC201266800F1C380304604F09D
:105408001FFF070700F1B280206804F019FF034668
:1054180020689E011BD404F013FFC306B8D5256885
:10542800AB6923F01003AB612E6A06F4F011C6F3E2
:105438000A17B1F5802F02D1002F40F0D381AB6954
:1054480043F01003AB61A3E702225A61C9E704F0F5
:10545800AFFFA26881462068002A00F08E8005F51B
:10546800A065002640E05A075BD50423BB60FB68B3
:1054780043F00203FB60BB689B0500F12681B96815
:1054880011F0010100F0CD8023694BB108EB8802CF
:10549800396904EBC202C1F31201936C5B1AD3643D
:1054A8004FEA88030122002003EB080104EBC10145
:1054B800886581F85D20BA6091F83F0010F0FD0F13
:1054C80000F08381032800F02682984404EBC80882
:1054D80098F8503083F0010388F85030A2682068AB
:1054E80001362035964248D206F00F0329FA03F315
:1054F800D907F5D55FFA86F82B6800F5A06A13F48A
:10550800004F4FEA481B0AEB4817BB68ABD113F0B2
:1055180004030DD00423BB60FB6843F00203FB6067
:10552800DEE7BB689B0640F1DE802023BB60A2E774
:10553800B96811F0200C00F0F28008EB880C2021EB
:1055480004EBCC0CB9609CF83D100129C8D18CF84B
:105558003D30022341468CF85C30FB6843F002037F
:10556800FB6004F029FFA2682068B9E72046FEF72F
:105578000DFB08232068436147E74FF00073436140
:1055880049E7D6F8403406F588670293D6F84034E0
:105598000393039B23F02E030393029B9B0707D5DA
:1055A800029BD80700F18881039B43F00203039311
:1055B800029B190718D5039B43F008030393029B2A
:1055C8005A0740F14181A169022900F08381E3680B
:1055D800012B03D14EF66023C6F804342046FEF7AB
:1055E800E3FA2046FEF7D6FA2668029B9B0603D507
:1055F800039B43F020030393039B3B60FEE6D5F82F
:105608004034204623F02E03C5F84034FEF7C6FA8E
:105618000121206804F0AAFE4FF00053206843617E
:10562800E6E6BB68980740F1B080FB6823F0020308
:10563800FB6008EB880304EBC30393F85D204FEA93
:105648008803501E072827D8DFE800F038263326BD
:105658002C04260403EB080204EBC202926D01320B
:10566800032A00F2F38111460222434404EBC303E8
:10567800996583F85C205AF80B3023F0804343F097
:1056880000434AF80B30022320464146BB60FEF730
:1056980089FAA268206823E7434404EBC30393F81C
:1056A8005C20F0E74344052104EBC30383F85C1056
:1056B800E9E74344022204EBC303DAE74344012148
:1056C80004EBC30383F85C10DDE7FB684146206800
:1056D80043F00203FB6004F06FFE4FF40073206890
:1056E800BB60A268FCE6BB68190700F1BA80BB681A
:1056F8005A057FF5C0AEFB68414643F00203FB60E4
:1057080004F05AFE102208EB8803BA60082204EB62
:10571800C30383F85D204FF48063BB60ABE6BB68CE
:105728005B0600F1B180BB6813F4007340F0CC80D5
:10573800B968C90700F1FE80BB6813F0080340F0A0
:105748007281B968C90640F10A8108EB880204EB46
:10575800C2029365032382F85D3092F83D3043B965
:10576800282303FB084393F83C2012B9012283F84D
:105778003D20FB68414643F00203FB6004F01CFE39
:1057880010232068BB60A268AAE6BB68206813F0F3
:105798008003014640F0A980BA68D20613D508EB09
:1057A800880004EBC00090F83F20032A00F05081E5
:1057B80012F0FD0204D123698265002B00F05681A6
:1057C80010230846BB60A2688AE6FA68414620684A
:1057D80042F002020193FA6004F0EEFD1022019BF0
:1057E800BA6072E606F00F0606EB860804EBC808F6
:1057F800D8F8441000293FF422AE3A46284604F06F
:1058080095FC05F5A061D8F8443001EB46122568EF
:105818003B441069D8F84C20C8F8443073013A4426
:10582800C8F84C20AE4A0240002A3FF408AECA58D5
:1058380022F0804242F00042CA5098F8503083F07B
:10584800010388F85030FAE52046FEF7B1F93B68C5
:10585800266823F02E033B60B36943F00053B3611D
:10586800C3E6FB680522414643F00203FB6008EBF0
:10587800880304EBC30383F85D201023BB6008236F
:10588800BB6004F099FDF6E508EB88030422414665
:1058980004EBC30383F85D200122C3F858C083F8E2
:1058A8003D20FB6843F00203FB6004F085FD4023C4
:1058B8002068BB60A26813E6B369204623F0005352
:1058C800B361FEF767F96FE6FB68414643F00203F0
:1058D800FB6000E7029B206803F4C023B3F5802F28
:1058E80018BF012104F042FD78E6FB6808EB880246
:1058F800414604EBC20243F00203FB60936D01339F
:105908009365062382F85D3004F056FD80232068F5
:10591800BB60A268E4E55AF80B00019340F0005020
:105928004AF80B00204681F85C204146FEF73AF918
:10593800019BCAE5FA68414642F0020C08EB88026E
:1059480004EBC208C8F85830C7F80CC004F034FD9E
:105958000123BB6088F85D30A2682068C0E5BB6899
:105968001B0600F19380BB6813F4806340F0A080AD
:10597800B96889077FF5B4ADFA6822F00202FA60C7
:10598800282202FB084292F85D20013A072A0BD828
:10599800DFE802F0370A0404181F0A1F282302222E
:1059A80003FB084383F85C20282302222046414653
:1059B80003FB0843BA6093F85C20FEF7F3F8A2688B
:1059C80020688DE52823052203FB084383F85C2023
:1059D800EAE7282202FB0842926D0132032A7CD8AA
:1059E80013460221282202FB084282F85C109365C4
:1059F8005AF80B3023F0804343F000434AF80B3049
:105A0800D2E72823012203FB084383F85C2093F89C
:105A18003F20023A012AC7D893F8512082F00102A8
:105A280083F85120C0E70823414608EB8808BB608B
:105A3800FB6843F00203FB6004F0BEFC052204EBA4
:105A4800C80383F85D20A268206849E504220CE6B3
:105A5800FA680846282142F0020201FB08418B65DA
:105A68004146FA6004F0A8FC2168A9E6282303222D
:105A78000846414603FB084383F85D20FB6843F072
:105A88000203FB6004F098FC216899E6FB68414634
:105A980043F00203FB6004F08FFC2823062203FB7B
:105AA800084383F85D2080232068BB60A26817E55F
:105AB800FB68414643F00203FB6004F07DFC1022C2
:105AC8002823BA604FF4806203FB0843BA600822B7
